{
  "contractName": "DecentralizedVideo",
  "abi": [
    {
      "inputs": [],
      "stateMutability": "nonpayable",
      "type": "constructor"
    },
    {
      "anonymous": false,
      "inputs": [
        {
          "indexed": false,
          "internalType": "uint256",
          "name": "id",
          "type": "uint256"
        },
        {
          "indexed": false,
          "internalType": "string",
          "name": "hash",
          "type": "string"
        },
        {
          "indexed": false,
          "internalType": "string",
          "name": "title",
          "type": "string"
        },
        {
          "indexed": false,
          "internalType": "address",
          "name": "author",
          "type": "address"
        }
      ],
      "name": "VideoUploaded",
      "type": "event"
    },
    {
      "inputs": [],
      "name": "name",
      "outputs": [
        {
          "internalType": "string",
          "name": "",
          "type": "string"
        }
      ],
      "stateMutability": "view",
      "type": "function"
    },
    {
      "inputs": [],
      "name": "videoCount",
      "outputs": [
        {
          "internalType": "uint256",
          "name": "",
          "type": "uint256"
        }
      ],
      "stateMutability": "view",
      "type": "function"
    },
    {
      "inputs": [
        {
          "internalType": "uint256",
          "name": "",
          "type": "uint256"
        }
      ],
      "name": "videos",
      "outputs": [
        {
          "internalType": "uint256",
          "name": "id",
          "type": "uint256"
        },
        {
          "internalType": "string",
          "name": "hash",
          "type": "string"
        },
        {
          "internalType": "string",
          "name": "title",
          "type": "string"
        },
        {
          "internalType": "address",
          "name": "author",
          "type": "address"
        }
      ],
      "stateMutability": "view",
      "type": "function"
    },
    {
      "inputs": [
        {
          "internalType": "string",
          "name": "_videoHash",
          "type": "string"
        },
        {
          "internalType": "string",
          "name": "_title",
          "type": "string"
        }
      ],
      "name": "uploadVideo",
      "outputs": [],
      "stateMutability": "nonpayable",
      "type": "function"
    }
  ],
  "bytecode": "0x6000805560c06040526012608081905271446563656e7472616c697a6564566964656f60701b60a0908152610037916001919061004a565b5034801561004457600080fd5b5061011e565b828054610056906100e3565b90600052602060002090601f01602090048101928261007857600085556100be565b82601f1061009157805160ff19168380011785556100be565b828001600101855582156100be579182015b828111156100be5782518255916020019190600101906100a3565b506100ca9291506100ce565b5090565b5b808211156100ca57600081556001016100cf565b600181811c908216806100f757607f821691505b6020821081141561011857634e487b7160e01b600052602260045260246000fd5b50919050565b6106a78061012d6000396000f3fe608060405234801561001057600080fd5b506004361061004c5760003560e01c806306fdde03146100515780638a5447c51461006f578063c61b5f4c14610084578063e6821bf51461009b575b600080fd5b6100596100be565b604051610066919061048e565b60405180910390f35b61008261007d36600461054b565b61014c565b005b61008d60005481565b604051908152602001610066565b6100ae6100a93660046105af565b610266565b60405161006694939291906105c8565b600180546100cb9061060d565b80601f01602080910402602001604051908101604052809291908181526020018280546100f79061060d565b80156101445780601f1061011957610100808354040283529160200191610144565b820191906000526020600020905b81548152906001019060200180831161012757829003601f168201915b505050505081565b600082511161015a57600080fd5b600081511161016857600080fd5b3361017257600080fd5b6000805433918061018283610648565b9091555050604080516080810182526000805480835260208084018881528486018890526001600160a01b038716606086015291835260028152939091208251815590518051929391926101dc92600185019201906103a8565b50604082015180516101f89160028401916020909101906103a8565b5060609190910151600390910180546001600160a01b0319166001600160a01b039092169190911790556000546040517f2c44b862f4b4e08a26a765f9499900759a9ec95360a6f174d53163bd5d367f6791610259918690869086906105c8565b60405180910390a1505050565b600260205260009081526040902080546001820180549192916102889061060d565b80601f01602080910402602001604051908101604052809291908181526020018280546102b49061060d565b80156103015780601f106102d657610100808354040283529160200191610301565b820191906000526020600020905b8154815290600101906020018083116102e457829003601f168201915b5050505050908060020180546103169061060d565b80601f01602080910402602001604051908101604052809291908181526020018280546103429061060d565b801561038f5780601f106103645761010080835404028352916020019161038f565b820191906000526020600020905b81548152906001019060200180831161037257829003601f168201915b505050600390930154919250506001600160a01b031684565b8280546103b49061060d565b90600052602060002090601f0160209004810192826103d6576000855561041c565b82601f106103ef57805160ff191683800117855561041c565b8280016001018555821561041c579182015b8281111561041c578251825591602001919060010190610401565b5061042892915061042c565b5090565b5b80821115610428576000815560010161042d565b6000815180845260005b818110156104675760208185018101518683018201520161044b565b81811115610479576000602083870101525b50601f01601f19169290920160200192915050565b6020815260006104a16020830184610441565b9392505050565b634e487b7160e01b600052604160045260246000fd5b600082601f8301126104cf57600080fd5b813567ffffffffffffffff808211156104ea576104ea6104a8565b604051601f8301601f19908116603f01168101908282118183101715610512576105126104a8565b8160405283815286602085880101111561052b57600080fd5b836020870160208301376000602085830101528094505050505092915050565b6000806040838503121561055e57600080fd5b823567ffffffffffffffff8082111561057657600080fd5b610582868387016104be565b9350602085013591508082111561059857600080fd5b506105a5858286016104be565b9150509250929050565b6000602082840312156105c157600080fd5b5035919050565b8481526080602082015260006105e16080830186610441565b82810360408401526105f38186610441565b91505060018060a01b038316606083015295945050505050565b600181811c9082168061062157607f821691505b6020821081141561064257634e487b7160e01b600052602260045260246000fd5b50919050565b600060001982141561066a57634e487b7160e01b600052601160045260246000fd5b506001019056fea2646970667358221220579cadc0293ba33587e87cb787a0f3be46cd622d997b321fdec782d367d52c9464736f6c634300080a0033",
  "immutableReferences": {},
  "source": "// SPDX-License-Identifier: MIT\npragma solidity >=0.4.22 <0.9.0;\n\ncontract DecentralizedVideo {\n    /* Number that stores the Count of all Videos ever will be created */\n    uint256 public videoCount = 0;\n    string public name = \"DecentralizedVideo\";\n    /* Mapping the ID to Video (Struct) */\n    mapping(uint256 => Video) public videos;\n    /* Struct to model a Video */\n    struct Video {\n        uint256 id;\n        /* Location from IPFS */\n        string hash;\n        string title;\n        /* User from Wallet */\n        address author;\n    }\n    /* Create an Event when a new Video is stored */\n    event VideoUploaded(uint256 id, string hash, string title, address author);\n\n    constructor() public {}\n\n    function uploadVideo(string memory _videoHash, string memory _title) public {\n        /* Require that Arguments exists */\n        /* Converting the _videoHash to Bytes and requires that the Video Hash Length is greater then 0 */\n        require(bytes(_videoHash).length > 0);\n        /* Converting the _title to Bytes and requires that the Video Title Length is greater then 0 */\n        require(bytes(_title).length > 0);\n        /* Requires that the Sender Address is not equal an empty Address */\n        require(msg.sender != address(0));\n        address author = msg.sender;\n        /* Increment Video ID to be unique */\n        videoCount++;\n        /* Add Video to the Mapping (Smart Contract) */\n        videos[videoCount] = Video(videoCount, _videoHash, _title, author);\n        /* Trigger an Event when a new Video is stored */\n        emit VideoUploaded(videoCount, _videoHash, _title, author);\n    }\n}\n",
  "sourcePath": "C:\\Users\\micha\\Downloads\\DecentralizedVideoPlattform\\src\\contracts\\DecentralizedVideo.sol",
  "compiler": {
    "name": "solc",
    "version": "0.8.10+commit.fc410830.Emscripten.clang"
  },
  "schemaVersion": "3.4.3",
  "updatedAt": "2021-11-25T10:35:35.230Z",
  "devdoc": {
    "kind": "dev",
    "methods": {},
    "version": 1
  },
  "userdoc": {
    "kind": "user",
    "methods": {},
    "version": 1
  }
}